{
  "address": "0xe7f1725E7734CE288F8367e1Bb143E90bb3F0512",
  "abi": [
    {
      "inputs": [
        {
          "internalType": "address",
          "name": "_priceFeedAddress",
          "type": "address"
        }
      ],
      "stateMutability": "nonpayable",
      "type": "constructor"
    },
    {
      "inputs": [],
      "name": "NotOwner",
      "type": "error"
    },
    {
      "stateMutability": "payable",
      "type": "fallback"
    },
    {
      "inputs": [],
      "name": "MIN_USD",
      "outputs": [
        {
          "internalType": "uint256",
          "name": "",
          "type": "uint256"
        }
      ],
      "stateMutability": "view",
      "type": "function"
    },
    {
      "inputs": [
        {
          "internalType": "address",
          "name": "",
          "type": "address"
        }
      ],
      "name": "addressToAmountFunded",
      "outputs": [
        {
          "internalType": "uint256",
          "name": "",
          "type": "uint256"
        }
      ],
      "stateMutability": "view",
      "type": "function"
    },
    {
      "inputs": [
        {
          "internalType": "uint256",
          "name": "",
          "type": "uint256"
        }
      ],
      "name": "funders",
      "outputs": [
        {
          "internalType": "address",
          "name": "",
          "type": "address"
        }
      ],
      "stateMutability": "view",
      "type": "function"
    },
    {
      "inputs": [],
      "name": "i_owner",
      "outputs": [
        {
          "internalType": "address",
          "name": "",
          "type": "address"
        }
      ],
      "stateMutability": "view",
      "type": "function"
    },
    {
      "inputs": [],
      "name": "priceFeed",
      "outputs": [
        {
          "internalType": "contract AggregatorV3Interface",
          "name": "",
          "type": "address"
        }
      ],
      "stateMutability": "view",
      "type": "function"
    },
    {
      "inputs": [],
      "name": "sendFund",
      "outputs": [],
      "stateMutability": "payable",
      "type": "function"
    },
    {
      "inputs": [],
      "name": "withdrawFund",
      "outputs": [],
      "stateMutability": "nonpayable",
      "type": "function"
    },
    {
      "stateMutability": "payable",
      "type": "receive"
    }
  ],
  "transactionHash": "0xaaeab1880ba8c86c4e3bede2f8057f83ad7e7f771c6e2aedde8ecb69726d5741",
  "args": [
    "0x5FbDB2315678afecb367f032d93F642f64180aa3"
  ],
  "numDeployments": 1,
  "solcInputHash": "d0660d64a4d7614069452b6749bdf34c",
  "bytecode": "0x60a060405234801561001057600080fd5b50604051610ef2380380610ef28339818101604052810190610032919061010f565b3373ffffffffffffffffffffffffffffffffffffffff1660808173ffffffffffffffffffffffffffffffffffffffff1681525050806000806101000a81548173ffffffffffffffffffffffffffffffffffffffff021916908373ffffffffffffffffffffffffffffffffffffffff1602179055505061013c565b600080fd5b600073ffffffffffffffffffffffffffffffffffffffff82169050919050565b60006100dc826100b1565b9050919050565b6100ec816100d1565b81146100f757600080fd5b50565b600081519050610109816100e3565b92915050565b600060208284031215610125576101246100ac565b5b6000610133848285016100fa565b91505092915050565b608051610d9461015e6000396000818161032d01526103900152610d946000f3fe6080604052600436106100745760003560e01c8063dba6335f1161004e578063dba6335f14610120578063dc0d3dff1461014b578063dd0cf15d14610188578063e07fa3c11461019257610083565b8063213dbea21461008d5780633e47d6f3146100b8578063741bef1a146100f557610083565b36610083576100816101a9565b005b61008b6101a9565b005b34801561009957600080fd5b506100a26102e2565b6040516100af919061075c565b60405180910390f35b3480156100c457600080fd5b506100df60048036038101906100da91906107da565b6102ef565b6040516100ec919061075c565b60405180910390f35b34801561010157600080fd5b5061010a610307565b6040516101179190610866565b60405180910390f35b34801561012c57600080fd5b5061013561032b565b6040516101429190610890565b60405180910390f35b34801561015757600080fd5b50610172600480360381019061016d91906108d7565b61034f565b60405161017f9190610890565b60405180910390f35b6101906101a9565b005b34801561019e57600080fd5b506101a761038e565b005b6801158e460913d000006101e660008054906101000a900473ffffffffffffffffffffffffffffffffffffffff16346105cf90919063ffffffff16565b1015610227576040517f08c379a000000000000000000000000000000000000000000000000000000000815260040161021e90610961565b60405180910390fd5b6001339080600181540180825580915050600190039060005260206000200160009091909190916101000a81548173ffffffffffffffffffffffffffffffffffffffff021916908373ffffffffffffffffffffffffffffffffffffffff16021790555034600260003373ffffffffffffffffffffffffffffffffffffffff1673ffffffffffffffffffffffffffffffffffffffff16815260200190815260200160002060008282546102d991906109b0565b92505081905550565b6801158e460913d0000081565b60026020528060005260406000206000915090505481565b60008054906101000a900473ffffffffffffffffffffffffffffffffffffffff1681565b7f000000000000000000000000000000000000000000000000000000000000000081565b6001818154811061035f57600080fd5b906000526020600020016000915054906101000a900473ffffffffffffffffffffffffffffffffffffffff1681565b7f000000000000000000000000000000000000000000000000000000000000000073ffffffffffffffffffffffffffffffffffffffff163373ffffffffffffffffffffffffffffffffffffffff1614610413576040517f30cd747100000000000000000000000000000000000000000000000000000000815260040160405180910390fd5b60005b6001805490508110156104bf57600060018281548110610439576104386109e4565b5b9060005260206000200160009054906101000a900473ffffffffffffffffffffffffffffffffffffffff1690506000600260008373ffffffffffffffffffffffffffffffffffffffff1673ffffffffffffffffffffffffffffffffffffffff168152602001908152602001600020819055505080806104b790610a13565b915050610416565b50600067ffffffffffffffff8111156104db576104da610a5b565b5b6040519080825280602002602001820160405280156105095781602001602082028036833780820191505090505b506001908051906020019061051f92919061069c565b5060003373ffffffffffffffffffffffffffffffffffffffff164760405161054690610abb565b60006040518083038185875af1925050503d8060008114610583576040519150601f19603f3d011682016040523d82523d6000602084013e610588565b606091505b50509050806105cc576040517f08c379a00000000000000000000000000000000000000000000000000000000081526004016105c390610b1c565b60405180910390fd5b50565b6000806105db8361060b565b90506000670de0b6b3a764000085836105f49190610b3c565b6105fe9190610bad565b9050809250505092915050565b6000808273ffffffffffffffffffffffffffffffffffffffff1663feaf968c6040518163ffffffff1660e01b815260040160a060405180830381865afa158015610659573d6000803e3d6000fd5b505050506040513d601f19601f8201168201806040525081019061067d9190610c6b565b5050509150506402540be400816106949190610ce6565b915050919050565b828054828255906000526020600020908101928215610715579160200282015b828111156107145782518260006101000a81548173ffffffffffffffffffffffffffffffffffffffff021916908373ffffffffffffffffffffffffffffffffffffffff160217905550916020019190600101906106bc565b5b5090506107229190610726565b5090565b5b8082111561073f576000816000905550600101610727565b5090565b6000819050919050565b61075681610743565b82525050565b6000602082019050610771600083018461074d565b92915050565b600080fd5b600073ffffffffffffffffffffffffffffffffffffffff82169050919050565b60006107a78261077c565b9050919050565b6107b78161079c565b81146107c257600080fd5b50565b6000813590506107d4816107ae565b92915050565b6000602082840312156107f0576107ef610777565b5b60006107fe848285016107c5565b91505092915050565b6000819050919050565b600061082c6108276108228461077c565b610807565b61077c565b9050919050565b600061083e82610811565b9050919050565b600061085082610833565b9050919050565b61086081610845565b82525050565b600060208201905061087b6000830184610857565b92915050565b61088a8161079c565b82525050565b60006020820190506108a56000830184610881565b92915050565b6108b481610743565b81146108bf57600080fd5b50565b6000813590506108d1816108ab565b92915050565b6000602082840312156108ed576108ec610777565b5b60006108fb848285016108c2565b91505092915050565b600082825260208201905092915050565b7f496e73756666696369656e742066756e64000000000000000000000000000000600082015250565b600061094b601183610904565b915061095682610915565b602082019050919050565b6000602082019050818103600083015261097a8161093e565b9050919050565b7f4e487b7100000000000000000000000000000000000000000000000000000000600052601160045260246000fd5b60006109bb82610743565b91506109c683610743565b92508282019050808211156109de576109dd610981565b5b92915050565b7f4e487b7100000000000000000000000000000000000000000000000000000000600052603260045260246000fd5b6000610a1e82610743565b91507fffffffffffffffffffffffffffffffffffffffffffffffffffffffffffffffff8203610a5057610a4f610981565b5b600182019050919050565b7f4e487b7100000000000000000000000000000000000000000000000000000000600052604160045260246000fd5b600081905092915050565b50565b6000610aa5600083610a8a565b9150610ab082610a95565b600082019050919050565b6000610ac682610a98565b9150819050919050565b7f4661696c656420746f207472616e736163742045544800000000000000000000600082015250565b6000610b06601683610904565b9150610b1182610ad0565b602082019050919050565b60006020820190508181036000830152610b3581610af9565b9050919050565b6000610b4782610743565b9150610b5283610743565b9250828202610b6081610743565b91508282048414831517610b7757610b76610981565b5b5092915050565b7f4e487b7100000000000000000000000000000000000000000000000000000000600052601260045260246000fd5b6000610bb882610743565b9150610bc383610743565b925082610bd357610bd2610b7e565b5b828204905092915050565b600069ffffffffffffffffffff82169050919050565b610bfd81610bde565b8114610c0857600080fd5b50565b600081519050610c1a81610bf4565b92915050565b6000819050919050565b610c3381610c20565b8114610c3e57600080fd5b50565b600081519050610c5081610c2a565b92915050565b600081519050610c65816108ab565b92915050565b600080600080600060a08688031215610c8757610c86610777565b5b6000610c9588828901610c0b565b9550506020610ca688828901610c41565b9450506040610cb788828901610c56565b9350506060610cc888828901610c56565b9250506080610cd988828901610c0b565b9150509295509295909350565b6000610cf182610c20565b9150610cfc83610c20565b9250828202610d0a81610c20565b91507f80000000000000000000000000000000000000000000000000000000000000008414600084121615610d4257610d41610981565b5b8282058414831517610d5757610d56610981565b5b509291505056fea2646970667358221220e0c13aa4108395457e0bf30fa4074be675a61aa3fed3227794eb39516551dedc64736f6c63430008130033",
  "devdoc": {
    "kind": "dev",
    "methods": {},
    "version": 1
  },
  "userdoc": {
    "kind": "user",
    "methods": {},
    "version": 1
  },
  "storageLayout": {
    "storage": [
      {
        "astId": 55,
        "contract": "contracts/FundMe.sol:FundMe",
        "label": "priceFeed",
        "offset": 0,
        "slot": "0",
        "type": "t_contract(AggregatorV3Interface)45"
      },
      {
        "astId": 83,
        "contract": "contracts/FundMe.sol:FundMe",
        "label": "funders",
        "offset": 0,
        "slot": "1",
        "type": "t_array(t_address)dyn_storage"
      },
      {
        "astId": 87,
        "contract": "contracts/FundMe.sol:FundMe",
        "label": "addressToAmountFunded",
        "offset": 0,
        "slot": "2",
        "type": "t_mapping(t_address,t_uint256)"
      }
    ],
    "types": {
      "t_address": {
        "encoding": "inplace",
        "label": "address",
        "numberOfBytes": "20"
      },
      "t_array(t_address)dyn_storage": {
        "base": "t_address",
        "encoding": "dynamic_array",
        "label": "address[]",
        "numberOfBytes": "32"
      },
      "t_contract(AggregatorV3Interface)45": {
        "encoding": "inplace",
        "label": "contract AggregatorV3Interface",
        "numberOfBytes": "20"
      },
      "t_mapping(t_address,t_uint256)": {
        "encoding": "mapping",
        "key": "t_address",
        "label": "mapping(address => uint256)",
        "numberOfBytes": "32",
        "value": "t_uint256"
      },
      "t_uint256": {
        "encoding": "inplace",
        "label": "uint256",
        "numberOfBytes": "32"
      }
    }
  }
}